:020000040000FA
:1000000000008D31522DFF348A012000911C4128BF
:10001000031022000D0D2000BD003D08031D122815
:100020001030BD0021008E0122008D0120003D080E
:10003000103A031928283D08203A03192D283D08B5
:10004000403A031932283D08803A031937283B28E3
:1000500021002F0822008E003B28210030082200BA
:100060008E003B282100310822008E003B28210011
:10007000320822008E0020003D0822008D00200062
:10008000911009002000BE01BF01FF30C0007F3089
:10009000C100FF30C2007F30C3006A3021009900E8
:1000A0000E308C0022008C0121008D0122008D0178
:1000B00021008E01063023008C0021001E169E17A1
:1000C00023008E01053020009C00FA309B002100A7
:1000D00091147A30280097007F30D0272000A700A5
:1000E0007708A900A800280C031878282800171101
:1000F000031C7C2828001715F430280096003730A0
:100100009E00FA309D007730D0272000EF0077085E
:10011000EE00C03020008B00093021009D0020003F
:10012000931DA52888310020803128001719A328A5
:10013000FF302100B20003302100AF005930210010
:10014000B1002100B000200093112000931C442D29
:100150002000BE0A0319BF0A3E1CBA284008F70057
:10016000410813262000C1007708C0000530210097
:100170009D00C62820004208F700430813262000EF
:10018000C3007708C200093021009D0020003E080E
:100190000F39031D422D4008F70041084725200074
:1001A000C5007708C4007430D0272000C700770846
:1001B000C6004408C8004508C90046084807210091
:1001C000A500200049082100A600200047080318C8
:1001D000470A0319ED282100A60720004208F7006E
:1001E000430847252000C5007708C4007530D02794
:1001F0002000C7007708C6004408C8004508C900A9
:10020000460848072100A700200049082100A8004F
:10021000200047080318470A031910292100A807DE
:1002200020004108C400C50100304502031D1A2901
:10023000F830440203184529003020004502031D10
:10024000232909304402031C45297B30D027200094
:10025000C5007708C4004504031942294308C400B7
:10026000C50100304502031D3729F8304402031848
:100270004529003020004502031D40290930440271
:10028000031C45292000C401482901302000C40076
:1002900020004408C500450C0318502922000C100A
:1002A000031C542922000C1422000C1C6E2911304E
:1002B0002100AF00CB302100B000FF302100B100A1
:1002C0002100B20022000C128C123C302100AD0043
:1002D000AE013C302100AB00AC01422D7C30D02778
:1002E0002000C5007708C400C60006304602031887
:1002F000972A21003213033020003F02031D822978
:10030000C0303E02031C9C2A7C30D0272000AC0069
:100310007708AD00AE0006302E020318932A7E3017
:10032000D0272000AC007708AD00AF0009302F02C5
:10033000031C9C290830AF002100A90A0319AA0A4E
:100340001330F70020002E088E31D826813120008E
:10035000AD0003102F0DAE00AD072D0AAC00D02765
:100360002000AE007708AC0002302D07B000D02787
:100370002000B1007708B0002E0821002A02031DDA
:10038000C52920002C0821002902031CFC2920007B
:1003900030082000EE00200031082000EF0020008F
:1003A0003008F6003108F7007730932720002F0837
:1003B000083A0319E62903302D07B200D0272000A0
:1003C000B3007708B2003304031DED290630F600B0
:1003D0000030F7007C309327932A2100A901AA015D
:1003E0002000AF0A2F08B200B3013208F60033082C
:1003F000F7007E309327932A7A30D0272000B2006E
:100400007708AF0032040319932A2D08D027200063
:10041000AF007708AD0021002A0EF0392000B300AC
:100420002100290E2000B2000F39B304B2060310D8
:10043000B20DB30D0310B20DB30D2030B400B501F1
:10044000B601B701B80120002E083302031D2A2A85
:100450002C083202031C4B2A20002C08B2022E0862
:10046000031C2E0FB3023008B9003108BA00003067
:10047000BA1BFF30BC00BB003908B4073A080318A8
:100480003A0FB5073B0803183B0FB6073C080318A3
:100490003C0FB707632A20002D08B9002F08BA00C7
:1004A0000030BA1BFF30BC00BB003908B4073A0863
:1004B00003183A0FB5073B0803183B0FB6073C0873
:1004C00003183C0FB7072000B80A40303802031C5D
:1004D000232A340E0F39AD00350EAC00F039AD04CF
:1004E000AC06360EAE00F039AC04AE06370EAF00E7
:1004F000F039AE04AF06F030AF19AF040310AF1BF4
:100500000314AF0CAE0CAC0CAD0C0310AF1B0314FA
:10051000AF0CAE0CAC0CAD0C2D082000EE00200092
:100520002C082000EF002000BE01BF019C2A210002
:1005300032172000BE01BF017630D0272000C50051
:100540007708C400450403190C2B7730D02720000E
:10055000C7007708C600210025082000C800210038
:1005600026082000C90046084802C6004708031CA8
:10057000470A4902C7000314C71F0310031CC52AFA
:10058000C609C709C60A0319C70A03142000C51FF4
:100590000310031CEE2AC409C509C40A0319C50ABD
:1005A0004508803ECA004708803E4A02031DDA2AF9
:1005B000460844022000C801031C481448080030C3
:1005C00003190130C900C800480C0318E92A2200A9
:1005D0000C10031CED2A22000C140C2B20004708E1
:1005E000803ECA004508803E4A02031DF92A44089D
:1005F00046022000C801031C4814480800300319B3
:100600000130C400C800480C0318082B22000C104D
:10061000031C0C2B22000C147330D0272000A700E1
:100620007708A9007B30D0272000A8007708AB000E
:10063000AA0021002B082C040319222BFF30AB0742
:10064000031CAC0321002D082E0403192B2BFF30B3
:10065000AD07031CAE032000AB0122000C1E322BA1
:100660002000AB0A20002B08003003190130A8003D
:10067000AB002B0C03183E2B2100B213031C422BA2
:100680002100B2172000AB0122008C1E492B200054
:10069000AB0A20002B08003003190130A800AB0082
:1006A0002B0C0318552B2100B211031C592B2100D0
:1006B000B21522000C1E8D2B20006F08803E2000FA
:1006C000AC0021002608803E20002C02031D6C2B6C
:1006D0002100250820006E020318C32B20002A08E1
:1006E00003198D2B290820006E022000AB0027087B
:1006F000031C270A20006F022000A8002100280800
:10070000803E2000AC002808803E2C02031D8B2B6D
:100710002B0821002702031CC32B22008C1E212C36
:1007200021002608803E2000AC0020006F08803E9B
:1007300020002C02031DA02B20006E0821002502A2
:100740000318C32B20002A080319212C2908200094
:100750006E072000AB0020006F082000A8002708CB
:100760000318270FA8072808803EAC00210028089E
:10077000803E20002C02031DC12B210027082000F1
:100780002B020318212C7830D0272000A8007708EE
:10079000AB00280EF0392100AC0020002B0E210008
:1007A000AB000F39AC04AB060310AB0DAC0D03105E
:1007B000AB0DAC0D2B0E0F392000AB0021002C0E21
:1007C0002000A800F039AB04A8062B082100AB02DA
:1007D00020002808031C280A0319F02B2100AC0272
:1007E0007930D0272000A8007708AB00280EF03918
:1007F0002100AE0020002B0E2100AD000F39AE0409
:10080000AD060310AD0DAE0D0310AD0DAE0D2D0EEA
:100810000F392000AB0021002E0E2000A800F03977
:10082000AB04A8062B082100AD0220002808031CF9
:10083000280A03191D2C2100AE0222000C128C1272
:10084000EF2C22000C1AEF2C8C1AEF2C7230D027D0
:100850002000A8007708AB000310A71B0314A70C07
:10086000A90C0310A71B0314A70CA90C2B0820002C
:100870006E072000AC0020006F082000AD002808A3
:100880000318280FAD072D08803EAE002100260872
:10089000803E20002E02031D512C2100250820003F
:1008A0002C020318922C20002A080319722C290804
:1008B00020006E022000AC002708031C270A20003D
:1008C0006F022000AD0021002808803E2000AE000D
:1008D0002D08803E2E02031D702C2C0821002702BB
:1008E000031C922C21002B082C0403198F2C2000B0
:1008F000AC012100B21F7E2C2000AC0A21002B0885
:1009000001392000AD00AE00AC062C0C03188A2C77
:100910002100B213031C8E2C2100B217EF2C2200F1
:100920000C16EF2C20002B0820006E022000AB00DC
:100930002808031C280A20006F022000A8002100BC
:100940002608803E2000AF002808803E2F02031DAD
:10095000AC2C2B08210025020318EF2C20002A08BC
:100960000319D02C290820006E072000A9002000C0
:100970006F0803186F0A0319BF2C2000A707200077
:100980002708803EAF0021002808803E20002F026B
:10099000031DCE2C2100270820002902031CEF2C68
:1009A00021002D082E040319ED2C2000A90121009F
:1009B000B21DDC2C2000A90A21002D0801392000DD
:1009C000A700AB00A906290C0318E82C2100B211DE
:1009D000031CEC2C2100B215EF2C22008C162000F9
:1009E000991F422D22000C1C022D23001D1F022DD9
:1009F00061302100AF0011302100B000FF30210034
:100A0000B1002B2D2000C40123001E1F092D200042
:100A1000C40A20004408003003190130C600C40095
:100A2000440C0318152D2100B210031C192D2100B0
:100A3000B21423001E1F242D0130F60021002708C8
:100A4000F700280851262B2D0130F600210025083B
:100A5000F700260851262000C40123001D1F322D57
:100A60002000C40A20004408003003190130C600E9
:100A7000C400440C03183E2D23001D13031C422DFB
:100A800023001D172000931064008F280800200009
:100A9000A0007708A1002030A200A301A401A601B4
:100AA000210E0F39A500200EA700F039A504A706D6
:100AB0000310A70CA50C3F30A505A7012508A90028
:100AC0000310200CA500A7010310A70CA50C031010
:100AD000A70CA50C1F302505A100A0012108A50029
:100AE000250AA1000230F70021088E31D826853171
:100AF0002000A000A7012008693EA0008E30A100C0
:100B000027080318270FA1070230F70025088E31A8
:100B1000D82685312000A700A8012708693EA70034
:100B20008E30A50028080318280FA507A80120006B
:100B300029082802031CBF2D2708F6002508F70006
:100B400080308E31BB2685312000AB007708AA00AB
:100B5000AC002B08AD000030AD1BFF30AE00AF0085
:100B60002C08A2072D0803182D0FA3072F08031820
:100B70002F0FA4072E0803182E0FA607E22D200022
:100B80002008F6002108F70080308E31BB26853121
:100B90002000AB007708AA00AC002B08AD000030A5
:100BA000AD1BFF30AE00AF002C08A2072D080318C4
:100BB0002D0FA3072F0803182F0FA4072E080318C3
:100BC0002E0FA6072000A80A40302802031C972DEC
:100BD000220E0F39A100230EA000F039A104A006B7
:100BE000240EA500F039A004A506260EA700F039B2
:100BF000A504A706F030A719A7040310A71B031428
:100C0000A70CA50CA00CA10C0310A71B0314A70C88
:100C1000A50CA00CA10C2108A2002008A30022080A
:100C2000F700230808002000A0007708A100210099
:100C30009D1421009D18192E1D102000210E0F3922
:100C4000A200200EA300F039A204A3060310A30CF7
:100C5000A20C0310A30CA20C2208A1022308031C5F
:100C6000230FA00221001C082000A200A3012208DB
:100C7000A400A60121001B082000A200A301220855
:100C8000A6042308A4042608A2002408A30022081E
:100C9000A10723080318230FA0072108F700200845
:100CA00008002000A9007708A8007608AB0003140C
:100CB000A91F0310031C652E210032122000A80971
:100CC000A909A80A0319A90A672E210032160030C3
:100CD00020002B0403196F2E2100B21232112000C4
:100CE0002908803E7D3E031D772EE8302802031C34
:100CF000872E20002808AA002908AC002A08F7003F
:100D00002C082A272000A9007708A800AB012000A2
:100D10002908803E803E031D8F2E64302802031C6C
:100D2000C32E20002808AA002908AC00AD0120002D
:100D30002C08803E803E031D9F2E64302A02031C37
:100D4000A82E9C302000AA07031CAC03AD0A972EE6
:100D500020002A08A8002C08A9000F30AD052D0896
:100D6000F63EAD008E300318013EAA002D08F600B5
:100D70002A08F70080308E31A92686312000AC0089
:100D80002100AF00C62EFF302100AF00200029084F
:100D9000803E803E031DCE2E0A3028020318DB2E33
:100DA00020002B08031DDB2E21002F082000AA00A5
:100DB000FF3A0319112F20002808AA002908AC00C7
:100DC000AD0120002C08803E803E031DE92E0A3034
:100DD0002A02031CF22EF6302000AA07031CAC03E3
:100DE000AD0AE12E20002A08A8002C08A9002D0831
:100DF000F63EAD008E300318013EAA002D08F60025
:100E00002A08F70080308E31A92687312000AC00F7
:100E10002100B00020002B080319142F21003010EE
:100E2000142FFF302100B00020002808AB00F63E50
:100E3000A8008E300318013EA9002808F6002908F2
:100E4000F70080308E31A92687312000AB002100C9
:100E5000B10008002000A0007708A1000310200CBA
:100E6000A200210CA3000310200CA400210CA6005A
:100E70000310A40CA60C2608A30724080318240FAB
:100E8000A207230E0F39A600220EA400F039A604F3
:100E9000A4062608A30724080318240FA207220883
:100EA000A600A4012608A30724080318240FA207FC
:100EB0000310A20CA30C0310A20CA30C0310A20C91
:100EC000A30C0310230DA600220DA4000310A60DF1
:100ED000A40D0310A60DA40D0310230DA500220DD3
:100EE000A7002508A60727080318270FA407260828
:100EF000A1022408031C240FA0020630A107031836
:100F0000A00A210E0F39A600200EA400F039A60475
:100F1000A4062608A30724080318240FA207230801
:100F2000F700220808002000A7007708A90076082B
:100F3000A8002708D0272000AB007708AA002806C1
:100F4000031DA62F2B0829060319CF2F03102000FD
:100F5000270DAA0020002A0823009100200028085D
:100F60002300930015139513151520008B1355308E
:100F700023009600AA309600951420008B172300BA
:100F8000151123009518C12F2000121220002908E6
:100F9000A800A9012A08A700AA0A271CAA2F08004E
:100FA0002000A000A101A2010310200DA300200039
:100FB000230823009100151395131514130820001E
:100FC000A000A4012008A600A5012208A000A401F9
:100FD00020082504A10024082604A2002308A0005C
:100FE000A30A201CD72F2108F7002208080000348C
:100FF000003400340034003400343C340034003415
:1010000020008B1322000D082000DA0021000E08BA
:101010002000DB0022008D01D83021008E0003105B
:101020002100370D2000DC00DD0120008E1F1A2872
:101030002000DD0A20005C08DE005D08DC005E04A4
:101040002100B7000310370D2000DC00DD01200077
:101050000E1E2C282000DD0A20005C08DE005D0842
:10106000DC005E042100B7000310370D2000DC0017
:10107000DD0120000E1F3E282000DD0A20005C0854
:10108000DE005D08DC005E042100B7000310370DB0
:101090002000DC00DD0120008E1D50282000DD0A2C
:1010A00020005C08DE005D08DC005E042100B70063
:1010B00020005A0822008D0020005B0821008E00CD
:1010C00020008B1721003608031DB6030D302100C8
:1010D00033020318442C88308A0072303307031817
:1010E0008A0A82007F28E928D12843295E29842999
:1010F000A829C529D129152AAE2A332B7C2B883063
:10110000210037052000DA00083A031D8E281B3025
:101110002100B60001302100B300462C0030210030
:1011200037040319462C7F308731D02788312000BF
:10113000DB007708DA005B040319462C333021000A
:1011400037052000DA00033A031DAA2802302100E7
:10115000B300462C2230210037052000DA00023A85
:10116000031DB62803302100B300462C11302100A6
:1011700037052000DA00013A031DC5280D30210093
:10118000B60004302100B300462C4430210037055E
:101190002000DA00403A031D462C07302100B3003E
:1011A000462C0030F6006B30F700003086315126B7
:1011B000883121002F102100B21632153330210062
:1011C00037052000DA00333A0319462C2100B30119
:1011D000462C003021003604031D22297F30873140
:1011E000D02788312000DC007708DA00DD005D08B8
:1011F000003003190130DA00DE00DF01DE1BDF03FF
:101200005E08F6005F08F7007F3087319327893149
:1012100020005D080319152922000C100C128C12F5
:1012200028001711200093101F293C302100AD0029
:10123000AE013C302100AB00AC01280017152100A5
:10124000B301462C8830210037052000DA00883AA7
:101250000319462CDA0123001E1F30292000DA0A68
:1012600020005A08003003190130DD00DA005A0C62
:1012700003183C2923001E13031C402923001E17BA
:101280002100B301462C77308731D02789312000E7
:10129000DD007708DA000130F6005A08F7005D0833
:1012A0008631512689312230210037052000DA00AD
:1012B000223A0319462C2100B301462C7C30873199
:1012C000D02789312000DD007708DA00DE00003009
:1012D000F7005E085824063020005E0203187929C2
:1012E00021003608031D79291130B6000530210090
:1012F000B3001130210037052000DA00113A03193C
:10130000462C2100B301462C7E308731D02789310D
:101310002000DD007708DA000030F6005A08F700F8
:101320005D0886315126893121003608031D9D292B
:101330000D30B60006302100B30011302100370512
:101340002000DA00113A0319462C2100B301462C83
:101350000030F60021002908F7002A0886315126BE
:10136000893121003608031DBA290D30B60004303A
:101370002100B3001130210037052000DA00113AB6
:101380000319462C2100B301462C0130F70021003F
:10139000340858246E302100B60008302100B30014
:1013A000462C0030210036040319DE298830210044
:1013B00037052000DA00803A031DE1292100B3013E
:1013C000462C2230210037052000DA00203A031D88
:1013D000F3292100B40A073034020318B40107309E
:1013E0002100B300462C1130210037052000DA001F
:1013F000103A031D072A2100B40307303402031CEE
:10140000032A0630B40007302100B300462C4430D4
:10141000210037052000DA00403A031D462C210048
:10142000B50109302100B300462C21003216B21656
:1014300032150630210034020318462A2100351CDB
:10144000282A85302100AF00D1302100B0002E2A9B
:1014500061302100AF0019302100B00003102100DD
:10146000350C2000DA00F63EDA008E300318013E1B
:10147000DD005A08F6005D08F70080308E31A9269D
:101480008A312000DE002100B100A72A0730F700D2
:10149000210035088E31D8268A312000DA00DD019E
:1014A0005A08D23EDA005D0803185D0F8D3EDD005C
:1014B0005A08F6005D08F70080308E31A9268A317F
:1014C0002000DE002100AF000730F70021003508C2
:1014D0008E31D8268A312000DA00DD015A08D23E4A
:1014E000DA005D0803185D0F8D3EDD00DA0A03198E
:1014F000DD0A5A08F6005D08F70080308E31A92613
:101500008A312000DE002100B0000730F700210002
:1015100035088E31D8268A312000DA00DD015A08DC
:10152000D23EDA005D0803185D0F8D3EDD0002300B
:10153000DA070318DD0A5A08F6005D08F700803064
:101540008E31A9268A312000DE002100B1006E30E4
:101550002100B6000A302100B300462C00302100E3
:101560003604031DB62A2100B301462C8830210021
:1015700037052000DA00803A031DC22A0730210017
:10158000B300462C2230210037052000DA00203A33
:10159000031DE12A2100B50A063021003402031898
:1015A000D82A133021003502031CDD2AB501DD2ABB
:1015B0000B30210035020318B50109302100B300BA
:1015C000462C1130210037052000DA00103A031DA7
:1015D000032B2100B5030630210034020318F82A3A
:1015E000133021003502031CFF2A1230B500FF2AF8
:1015F0000B3021003502031CFF2A0A30B5000930E8
:101600002100B300462C4430210037052000DA00C9
:10161000403A031D462C1330F700210034088E3168
:10162000D8268B312000DA00210035082000DA07A7
:101630005A088731D0278B312000E1007708E0007D
:1016400020005A08F60020006008F700610898247E
:101650002000E1007708E0006E302100B6000B307A
:101660002100B300462C06302100340203184F2B12
:101670002100351C452B0030F60020006008F700E3
:101680006108863151268B31752B0130F600200020
:101690006008F7006108863151268B31752B0630C2
:1016A0002100350203185E2B0130F600200060088F
:1016B000F7006108863151268B31752B0A302100E5
:1016C000350203186D2B0030F60020006008F7008B
:1016D0006108863151268B31752B2000600820006F
:1016E000DA000030F7005A0858246E302100B600A6
:1016F0000C302100B300462C1330F70021003408D1
:101700008E31D8268B312000DA00210035082000E8
:10171000DA0721003608031D902B2100B301462C67
:101720008830210037052000DD00803A031D9C2B06
:1017300009302100B300462C2100B71EB22B200037
:10174000E00A0319E10A6108803E7D3E031DAA2BD1
:10175000E9306002031CC82B09302000E0070318A1
:10176000E10AC82B2100371EDF2BFF302000E007E5
:10177000031CE1036108803E7D3E031DC12BE9305F
:101780006002031CC82BF7302000E007031CE103B4
:1017900020005A08F60020006008F700610898242D
:1017A0002000E1007708E0001F3028001D02031C24
:1017B000DB2BF8309D070B302100B300462C443062
:1017C000210037052000DD00403A031D402C210098
:1017D0003408063A031D322C210035080A3A031D4D
:1017E000322C0030F6000030F7007E30873193272E
:1017F0008B312100A901AA0120006108803E803EB2
:10180000031D042C063060020318322C20006008EF
:101810002000DD001330F7005D088E31D8268C31B2
:101820002000DE008731D0278C312000EF007708C0
:10183000EE006E08F6006F08F700773087319327C7
:101840008C312000DE0A5E088731D0278C312000E1
:10185000DE007708DD005E04031D322C0630200018
:10186000E000E10120006008F6006108F7002000B8
:101870005A08873193278C3109302100B300462C58
:10188000FA3028009D00462C2100B30121003308C6
:101890000030031901302000DA00DD005D0C031870
:1018A000532C20009913031C572C20009917080073
:1018B0002000CC007708CB0021003216B21632157A
:1018C000B214063020004C0203187F2C193021007E
:1018D000AF00DD302100B00020004C08F63ECC0007
:1018E0008E300318013ECE004C08F6004E08F7007B
:1018F00080308E31A9268C312100B100972C003028
:1019000020004B0403198E2C61302100AF000930F8
:101910002100B000C9302100B100972CC93021004E
:10192000AF00D1302100B000FF302100B10008002D
:101930002000D3007708D2007608D4007230540219
:101940000318D22C5408D500133020005502031C74
:10195000AC2CED30D507A42C2000551CC02CE73052
:10196000F3000330F4000030F5000030F6005208B8
:10197000F70053081E252000D3007708D200192D48
:101980007830F3000530F4007030F500FE30F600DA
:1019900020005208F70053081E252000D3007708C6
:1019A000D200192D8E302000D4070730F7005408DC
:1019B0008E31D8268C312000D500D6015508D23E74
:1019C000D4008D30D70056080318560FD7070330C0
:1019D0005407D500D601D60D5708D6075508F6008E
:1019E0005608F70080308E31BB268C312000D9009C
:1019F0007708D8000530D4070318D70A5408F60032
:101A00005708F70080308E31BB268D312000D6007C
:101A10007708D500F3005608F4005808F500590877
:101A2000F6005208F70053081E252000D30077085F
:101A3000D20020005208F700530808002000CC0014
:101A40007708CB007608CE007508CD007408D0006A
:101A50007308CF005008803ED1004C08803E5102F0
:101A6000031D342D4B084F0203183B2D20004D0859
:101A7000F7004E08512D20004C08803ED1004E0842
:101A8000803E5102031D462D4D084B0203184D2D7B
:101A900020004F08F7005008512D20004B08F70098
:101AA0004C0808001F30F6008E30F70080308E3171
:101AB000BB268D312000E3007708E2002130E400EE
:101AC0008E30E50020006208E6006308E700FF3082
:101AD000E207031CE303660867040319CF2D0430F3
:101AE0006407E600E701E70D6508E7076608F6000A
:101AF0006708F70080308E31BB268D312000E90069
:101B00007708E8006408F6006508F70080308E3139
:101B1000BB268D312000EB00E7007708EA00E600E5
:101B200002306407E600E701E70D6508E70766088D
:101B3000F6006708F70080308E31BB268D3120001B
:101B4000E700ED007708E600EC0020006808EC00F4
:101B50006908ED00FF30E807031CE9036C086D0419
:101B60000319C92D6A08F6006B08F70080308E3122
:101B7000A9268D312000EC006608840067088500E6
:101B80006C088000EA0A0319EB0AE60A0319E70A5F
:101B9000A52D06302000E4070318E50A622D8031E8
:101BA00042280800D134A134FF34003400343234E8
:101BB0000034D134A1340D3400340034FA3400340C
:101BC000C934CD34FF34CE34FF3432340034C93418
:101BD000CD340D34CE34FF3432340034613411341A
:101BE000FF347034FE349034013461341934FF34DE
:101BF0007034FE3478340534CD348534FF34003409
:101C000000343C340034D1348534FF3400340034A3
:101C10003C340034DD341934FF34003400340134F2
:101C200000341934C1340D3400340034013400342C
:101C3000DD34D534FF3400340034063400340C3441
:101C4000003403340034B234003401340034F73447
:101C50000734A534003402340034F9340734A7348F
:101C6000003402340034FB340734A9340034023425
:101C70000034FD340734AB34003402340034003413
:101C80000F34AD34003402340034FF340734B3343D
:101C900000340134003402340F34B43400340134DD
:101CA000003403340F34B5340034013400340434C8
:101CB0000F34B63400340134003405340F34B734F3
:101CC00000340134003406340F34B83400340134A5
:101CD0000034003400341A34FE349D34FE34F234BF
:101CE000FE343334FF346934FF349834FF34C33462
:101CF000FF34EB34FF3410340034333400345534C3
:101D000000347734003498340034B8340034D93493
:101D10000034FA3400341C3401343E34013462346B
:101D2000013487340134AF340134D93401340734F9
:101D300002343934023470340234B0340234FB34A7
:101D4000023458340334D134033482340434CA3472
:101D50000534003A0319B02E803A0319B62E003428
:101D600076088400770885000008080077088A0054
:101D7000760882000800003A0319C32E803A03193E
:101D8000CB2EF70100347608840077088500120016
:101D9000F700000808008E31B626F500F60FF703AD
:101DA000F70A8E31B626F4007508F70074080800AB
:101DB0002100A0007708A100A2010830A3002100A3
:101DC000201CE42E2108A20721002008A4000310F3
:101DD000240CA0000310210DA400A1002303A400E3
:101DE000A3002408031DDF2E220808000334B734A3
:101DF0000D342534B1346134413437340134213465
:0E1E00003C340034003400340034003400342C
:020000040001F9
:02000E00D40F0D
:02001000FF3AB5
:00000001FF
