:020000040000FA
:1000000000008D314B2DFF348A012000911C4128C6
:10001000031022000D0D2000BD003D08031D122815
:100020001030BD0021008E0122008D0120003D080E
:10003000103A031928283D08203A03192D283D08B5
:10004000403A031932283D08803A031937283B28E3
:1000500021002F0822008E003B28210030082200BA
:100060008E003B282100310822008E003B28210011
:10007000320822008E0020003D0822008D00200062
:10008000911009002000BE01BF01FF30C0007F3089
:10009000C100FF30C2007F30C3006A3021009900E8
:1000A0000E308C0022008C0121008D0122008D0178
:1000B00021008E01063023008C0021001E169E17A1
:1000C00023008E01053020009C00FA309B002100A7
:1000D00091147A30280097007F30C8272000A700AD
:1000E0007708A900A800280C031878282800171101
:1000F000031C7C2828001715F430280096003730A0
:100100009E00FA309D007730C8272000EF00770866
:10011000EE00C03020008B00093021009D0020003F
:10012000931DA52888310020803128001719A328A5
:10013000FF302100B20003302100AF005930210010
:10014000B1002100B000200093112000931C3C2D31
:100150002000BE0A0319BF0A3E1CBA284008F70057
:1001600041080B262000C1007708C000053021009F
:100170009D00C62820004208F70043080B262000F7
:10018000C3007708C200093021009D0020003E080E
:100190000F39031D3A2D4008F70041083F25200084
:1001A000C5007708C4007430C8272000C70077084E
:1001B000C6004408C8004508C90046084807210091
:1001C000A500200049082100A600200047080318C8
:1001D000470A0319ED282100A60720004208F7006E
:1001E00043083F252000C5007708C4007530C827A4
:1001F0002000C7007708C6004408C8004508C900A9
:10020000460848072100A700200049082100A8004F
:10021000200047080318470A031910292100A807DE
:1002200020004108C400C50100304502031D1A2901
:10023000F830440203184529003020004502031D10
:10024000232909304402031C45297B30C82720009C
:10025000C5007708C4004504031942294308C400B7
:10026000C50100304502031D3729F8304402031848
:100270004529003020004502031D40290930440271
:10028000031C45292000C401482901302000C40076
:1002900020004408C500450C0318502922000C100A
:1002A000031C542922000C1422000C1C6E2911304E
:1002B0002100AF00CB302100B000FF302100B100A1
:1002C0002100B20022000C128C123C302100AD0043
:1002D000AE013C302100AB00AC013A2D7C30C82788
:1002E0002000C5007708C400C60006304602031887
:1002F000972A21003213033020003F02031D822978
:10030000C0303E02031C9C2A7C30C8272000AC0071
:100310007708AD00AE0006302E020318932A7E3017
:10032000C8272000AC007708AD00AF0009302F02CD
:10033000031C9C290830AF002100A90A0319AA0A4E
:100340001330F70020002E088E31D1268131200095
:10035000AD0003102F0DAE00AD072D0AAC00C8276D
:100360002000AE007708AC0002302D07B000C8278F
:100370002000B1007708B0002E0821002A02031DDA
:10038000C52920002C0821002902031CFC2920007B
:1003900030082000EE00200031082000EF0020008F
:1003A0003008F6003108F70077308B2720002F083F
:1003B000083A0319E62903302D07B200C8272000A8
:1003C000B3007708B2003304031DED290630F600B0
:1003D0000030F7007C308B27932A2100A901AA0165
:1003E0002000AF0A2F08B200B3013208F60033082C
:1003F000F7007E308B27932A7A30C8272000B2007E
:100400007708AF0032040319932A2D08C82720006B
:10041000AF007708AD0021002A0EF0392000B300AC
:100420002100290E2000B2000F39B304B2060310D8
:10043000B20DB30D0310B20DB30D2030B400B501F1
:10044000B601B701B80120002E083302031D2A2A85
:100450002C083202031C4B2A20002C08B2022E0862
:10046000031C2E0FB3023008B9003108BA00003067
:10047000BA1BFF30BC00BB003908B4073A080318A8
:100480003A0FB5073B0803183B0FB6073C080318A3
:100490003C0FB707632A20002D08B9002F08BA00C7
:1004A0000030BA1BFF30BC00BB003908B4073A0863
:1004B00003183A0FB5073B0803183B0FB6073C0873
:1004C00003183C0FB7072000B80A40303802031C5D
:1004D000232A340E0F39AD00350EAC00F039AD04CF
:1004E000AC06360EAE00F039AC04AE06370EAF00E7
:1004F000F039AE04AF06F030AF19AF040310AF1BF4
:100500000314AF0CAE0CAC0CAD0C0310AF1B0314FA
:10051000AF0CAE0CAC0CAD0C2D082000EE00200092
:100520002C082000EF002000BE01BF019C2A210002
:1005300032172000BE01BF017630C8272000C50059
:100540007708C40045040319042B20006E0821001D
:1005500025022000C60020006F08031C6F0A21003E
:1005600026022000C7000314C71F0310031CBD2A66
:10057000C609C709C60A0319C70A03142000C51F04
:100580000310031CE62AC409C509C40A0319C50AD5
:100590004508803ECA004708803E4A02031DD22A11
:1005A000460844022000C801031C481448080030D3
:1005B00003190130C900C800480C0318E12A2200C1
:1005C0000C10031CE52A22000C14042B2000470801
:1005D000803ECA004508803E4A02031DF12A4408B5
:1005E00046022000C801031C4814480800300319C3
:1005F0000130C400C800480C0318002B22000C1066
:10060000031C042B22000C147330C8272000A70001
:100610007708A9007B30C8272000A8007708AB0026
:10062000AA0021002B082C0403191A2BFF30AB075A
:10063000031CAC0321002D082E040319232BFF30CB
:10064000AD07031CAE032000AB0122000C1E2A2BB9
:100650002000AB0A20002B08003003190130A8004D
:10066000AB002B0C0318362B2100B213031C3A2BC2
:100670002100B2172000AB0122008C1E412B20006C
:10068000AB0A20002B08003003190130A800AB0092
:100690002B0C03184D2B2100B211031C512B2100F0
:1006A000B21522000C1E852B20006F08803E200012
:1006B000AC0021002608803E20002C02031D642B84
:1006C0002100250820006E020318BB2B20002A08F9
:1006D0000319852B290820006E022000AB00270893
:1006E000031C270A20006F022000A8002100280810
:1006F000803E2000AC002808803E2C02031D832B86
:100700002B0821002702031CBB2B22008C1E192C56
:1007100021002608803E2000AC0020006F08803EAB
:1007200020002C02031D982B20006E0821002502BA
:100730000318BB2B20002A080319192C29082000B4
:100740006E072000AB0020006F082000A8002708DB
:100750000318270FA8072808803EAC0021002808AE
:10076000803E20002C02031DB92B21002708200009
:100770002B020318192C7830C8272000A80077080E
:10078000AB00280EF0392100AC0020002B0E210018
:10079000AB000F39AC04AB060310AB0DAC0D03106E
:1007A000AB0DAC0D2B0E0F392000AB0021002C0E31
:1007B0002000A800F039AB04A8062B082100AB02EA
:1007C00020002808031C280A0319E82B2100AC028A
:1007D0007930C8272000A8007708AB00280EF03930
:1007E0002100AE0020002B0E2100AD000F39AE0419
:1007F000AD060310AD0DAE0D0310AD0DAE0D2D0EFB
:100800000F392000AB0021002E0E2000A800F03987
:10081000AB04A8062B082100AD0220002808031C09
:10082000280A0319152C2100AE0222000C128C128A
:10083000E72C22000C1AE72C8C1AE72C7230C82700
:100840002000A8007708AB000310A71B0314A70C17
:10085000A90C0310A71B0314A70CA90C2B0820003C
:100860006E072000AC0020006F082000AD002808B3
:100870000318280FAD072D08803EAE002100260882
:10088000803E20002E02031D492C21002508200057
:100890002C0203188A2C20002A0803196A2C290824
:1008A00020006E022000AC002708031C270A20004D
:1008B0006F022000AD0021002808803E2000AE001D
:1008C0002D08803E2E02031D682C2C0821002702D3
:1008D000031C8A2C21002B082C040319872C2000D0
:1008E000AC012100B21F762C2000AC0A21002B089D
:1008F00001392000AD00AE00AC062C0C0318822C90
:100900002100B213031C862C2100B217E72C220011
:100910000C16E72C20002B0820006E022000AB00F4
:100920002808031C280A20006F022000A8002100CC
:100930002608803E2000AF002808803E2F02031DBD
:10094000A42C2B08210025020318E72C20002A08DC
:100950000319C82C290820006E072000A9002000D8
:100960006F0803186F0A0319B72C2000A70720008F
:100970002708803EAF0021002808803E20002F027B
:10098000031DC62C2100270820002902031CE72C88
:1009900021002D082E040319E52C2000A9012100B7
:1009A000B21DD42C2000A90A21002D0801392000F5
:1009B000A700AB00A906290C0318E02C2100B211F6
:1009C000031CE42C2100B215E72C22008C16200019
:1009D000991F3A2D22000C1CFA2C23001D1FFA2C03
:1009E00061302100AF0011302100B000FF30210044
:1009F000B100232D2000C40123001E1F012D200063
:100A0000C40A20004408003003190130C600C400A5
:100A1000440C03180D2D2100B210031C112D2100D0
:100A2000B21423001E1F1C2D0130F60021002708E0
:100A3000F70028084926232D0130F600210025085B
:100A4000F700260849262000C40123001D1F2A2D77
:100A50002000C40A20004408003003190130C600F9
:100A6000C400440C0318362D23001D13031C3A2D1B
:100A700023001D172000931064008F280800200019
:100A8000A0007708A1002030A200A301A401A601C4
:100A9000210E0F39A500200EA700F039A504A706E6
:100AA0000310A70CA50C3F30A505A7012508A90038
:100AB0000310200CA500A7010310A70CA50C031020
:100AC000A70CA50C1F302505A100A0012108A50039
:100AD000250AA1000230F70021088E31D126853188
:100AE0002000A000A7012008623EA0008E30A100D7
:100AF00027080318270FA1070230F70025088E31B9
:100B0000D12685312000A700A8012708623EA70052
:100B10008E30A50028080318280FA507A80120007B
:100B200029082802031CB72D2708F6002508F7001E
:100B300080308E31B42685312000AB007708AA00C2
:100B4000AC002B08AD000030AD1BFF30AE00AF0095
:100B50002C08A2072D0803182D0FA3072F08031830
:100B60002F0FA4072E0803182E0FA607DA2D20003A
:100B70002008F6002108F70080308E31B426853138
:100B80002000AB007708AA00AC002B08AD000030B5
:100B9000AD1BFF30AE00AF002C08A2072D080318D4
:100BA0002D0FA3072F0803182F0FA4072E080318D3
:100BB0002E0FA6072000A80A40302802031C8F2D04
:100BC000220E0F39A100230EA000F039A104A006C7
:100BD000240EA500F039A004A506260EA700F039C2
:100BE000A504A706F030A719A7040310A71B031438
:100BF000A70CA50CA00CA10C0310A71B0314A70C99
:100C0000A50CA00CA10C2108A2002008A30022081A
:100C1000F700230808002000A0007708A1002100A9
:100C20009D1421009D18112E1D102000210E0F393A
:100C3000A200200EA300F039A204A3060310A30C07
:100C4000A20C0310A30CA20C2208A1022308031C6F
:100C5000230FA00221001C082000A200A3012208EB
:100C6000A400A60121001B082000A200A301220865
:100C7000A6042308A4042608A2002408A30022082E
:100C8000A10723080318230FA0072108F700200855
:100C900008002000A9007708A8007608AB0003141C
:100CA000A91F0310031C5D2E210032122000A80989
:100CB000A909A80A0319A90A5F2E210032160030DB
:100CC00020002B040319672E2100B21232112000DC
:100CD0002908803E7D3E031D6F2EE8302802031C4C
:100CE0007F2E20002808AA002908AC002A08F70057
:100CF0002C0822272000A9007708A800AB012000BB
:100D00002908803E803E031D872E64302802031C84
:100D1000BB2E20002808AA002908AC00AD01200045
:100D20002C08803E803E031D972E64302A02031C4F
:100D3000A02E9C302000AA07031CAC03AD0A8F2E06
:100D400020002A08A8002C08A9000F30AD052D08A6
:100D5000EF3EAD0087300318013EAA002D08F600D3
:100D60002A08F70080308E31A22686312000AC00A0
:100D70002100AF00BE2EFF302100AF002000290867
:100D8000803E803E031DC62E0A3028020318D32E53
:100D900020002B08031DD32E21002F082000AA00BD
:100DA000FF3A0319092F20002808AA002908AC00DF
:100DB000AD0120002C08803E803E031DE12E0A304C
:100DC0002A02031CEA2EF6302000AA07031CAC03FB
:100DD000AD0AD92E20002A08A8002C08A9002D0849
:100DE000EF3EAD0087300318013EAA002D08F60043
:100DF0002A08F70080308E31A22686312000AC0010
:100E00002100B00020002B0803190C2F2100301006
:100E10000C2FFF302100B00020002808AB00EF3E6F
:100E2000A80087300318013EA9002808F600290809
:100E3000F70080308E31A22687312000AB002100E0
:100E4000B10008002000A0007708A1000310200CCA
:100E5000A200210CA3000310200CA400210CA6006A
:100E60000310A40CA60C2608A30724080318240FBB
:100E7000A207230E0F39A600220EA400F039A60403
:100E8000A4062608A30724080318240FA207220893
:100E9000A600A4012608A30724080318240FA2070C
:100EA0000310A20CA30C0310A20CA30C0310A20CA1
:100EB000A30C0310230DA600220DA4000310A60D01
:100EC000A40D0310A60DA40D0310230DA500220DE3
:100ED000A7002508A60727080318270FA407260838
:100EE000A1022408031C240FA0020630A107031846
:100EF000A00A210E0F39A600200EA400F039A60486
:100F0000A4062608A30724080318240FA207230811
:100F1000F700220808002000A7007708A90076083B
:100F2000A8002708C8272000AB007708AA002806D9
:100F3000031D9E2F2B0829060319C72F031020001D
:100F4000270DAA0020002A0823009100200028086D
:100F50002300930015139513151520008B1355309E
:100F600023009600AA309600951420008B172300CA
:100F7000151123009518B92F2000121220002908FE
:100F8000A800A9012A08A700AA0A271CA22F080066
:100F90002000A000A101A2010310200DA300200049
:100FA000230823009100151395131514130820002E
:100FB000A000A4012008A600A5012208A000A40109
:100FC00020082504A10024082604A2002308A0006C
:100FD000A30A201CCF2F2108F700220808000334A1
:100FE000B7340D342534B1346134413437340134ED
:100FF0002134003400340034003400340034003430
:1010000020008B1322000D082000DA0021000E08BA
:101010002000DB0022008D01D83021008E0003105B
:101020002100370D2000DC00DD0120008E1F1A2872
:101030002000DD0A20005C08DE005D08DC005E04A4
:101040002100B7000310370D2000DC00DD01200077
:101050000E1E2C282000DD0A20005C08DE005D0842
:10106000DC005E042100B7000310370D2000DC0017
:10107000DD0120000E1F3E282000DD0A20005C0854
:10108000DE005D08DC005E042100B7000310370DB0
:101090002000DC00DD0120008E1D50282000DD0A2C
:1010A00020005C08DE005D08DC005E042100B70063
:1010B00020005A0822008D0020005B0821008E00CD
:1010C00020008B1721003608031DB6030D302100C8
:1010D000330203183D2C88308A007230330703181E
:1010E0008A0A82007F28E928D128432957297D29A7
:1010F000A129BE29CA290E2AA72A2C2B752B883094
:10110000210037052000DA00083A031D8E281B3025
:101110002100B60001302100B3003F2C0030210037
:10112000370403193F2C7F308731C82788312000CE
:10113000DB007708DA005B0403193F2C3330210011
:1011400037052000DA00033A031DAA2802302100E7
:10115000B3003F2C2230210037052000DA00023A8C
:10116000031DB62803302100B3003F2C11302100AD
:1011700037052000DA00013A031DC5280D30210093
:10118000B60004302100B3003F2C44302100370565
:101190002000DA00403A031D3F2C07302100B30045
:1011A0003F2C0030F6006430F700003086314926CD
:1011B000883121002F102100B21632153330210062
:1011C00037052000DA00333A03193F2C2100B30120
:1011D0003F2C003021003604031D22297F30873147
:1011E000C82788312000DC007708DA00DD005D08C0
:1011F000003003190130DA00DE00DF01DE1BDF03FF
:101200005E08F6005F08F7007F3087318B27893151
:1012100020005D080319152922000C100C128C12F5
:1012200028001711200093101F293C302100AD0029
:10123000AE013C302100AB00AC01280017152100A5
:10124000B3013F2C8830210037052000DA00883AAE
:1012500003193F2CDA0123001E1F30292000DA0A6F
:1012600020005A08003003190130DD00DA005A0C62
:1012700003183C2923001E13031C402923001E17BA
:101280002100B3013F2C0130F60020006E08F7006A
:101290006F08863149268931223021003705200028
:1012A000DA00223A03193F2C2100B3013F2C7C3095
:1012B0008731C82789312000DD007708DA00DE0099
:1012C0000030F7005E085124063020005E0203184B
:1012D000722921003608031D72291130B60005302D
:1012E0002100B3001130210037052000DA00113A47
:1012F00003193F2C2100B3013F2C7E308731C827D2
:1013000089312000DD007708DA000030F6005A0845
:10131000F7005D0886314926893121003608031D12
:1013200096290D30B60006302100B300113021009F
:1013300037052000DA00113A03193F2C2100B301D0
:101340003F2C0030F60021002908F7002A088631DA
:101350004926893121003608031DB3290D30B60016
:1013600004302100B3001130210037052000DA00DD
:10137000113A03193F2C2100B3013F2C0130F70033
:101380002100340851246E302100B60008302100BD
:10139000B3003F2C0030210036040319D7298830D0
:1013A000210037052000DA00803A031DDA292100E8
:1013B000B3013F2C2230210037052000DA00203A0B
:1013C000031DEC292100B40A073034020318B401CC
:1013D00007302100B3003F2C1130210037052000D9
:1013E000DA00103A031D002A2100B403073034024A
:1013F000031CFC290630B40007302100B3003F2C49
:101400004430210037052000DA00403A031D3F2C0C
:101410002100B50109302100B3003F2C2100321614
:10142000B216321506302100340203183F2A21007B
:10143000351C212A85302100AF00D1302100B000B9
:10144000272A61302100AF0019302100B0000310BD
:101450002100350C2000DA00EF3EDA008730031857
:10146000013EDD005A08F6005D08F70080308E313D
:10147000A2268A312000DE002100B100A02A073018
:10148000F700210035088E31D1268A312000DA009C
:10149000DD015A08CB3EDA005D0803185D0F8D3E72
:1014A000DD005A08F6005D08F70080308E31A22674
:1014B0008A312000DE002100AF000730F700210054
:1014C00035088E31D1268A312000DA00DD015A0834
:1014D000CB3EDA005D0803185D0F8D3EDD00DA0AB1
:1014E0000319DD0A5A08F6005D08F70080308E31D6
:1014F000A2268A312000DE002100B0000730F7006C
:10150000210035088E31D1268A312000DA00DD0134
:101510005A08CB3EDA005D0803185D0F8D3EDD00F2
:101520000230DA070318DD0A5A08F6005D08F700F2
:1015300080308E31A2268A312000DE002100B100E9
:101540006E302100B6000A302100B3003F2C00307D
:1015500021003604031DAF2A2100B3013F2C88303F
:10156000210037052000DA00803A031DBB2A07302E
:101570002100B3003F2C2230210037052000DA0083
:10158000203A031DDA2A2100B50A06302100340270
:101590000318D12A133021003502031CD62AB501C5
:1015A000D62A0B30210035020318B501093021007D
:1015B000B3003F2C1130210037052000DA00103A2B
:1015C000031DFC2A2100B503063021003402031854
:1015D000F12A133021003502031CF82A1230B5001D
:1015E000F82A0B3021003502031CF82A0A30B50016
:1015F00009302100B3003F2C443021003705200082
:10160000DA00403A031D3F2C1330F7002100340864
:101610008E31D1268B312000DA00210035082000E0
:10162000DA075A088731C8278B312000E100770894
:10163000E00020005A08F60020006008F70061086A
:1016400091242000E1007708E0006E302100B60010
:101650000B302100B3003F2C063021003402031868
:10166000482B2100351C3E2B0030F600200060087E
:10167000F7006108863149268B316E2B0130F60068
:1016800020006008F7006108863149268B316E2BF7
:101690000630210035020318572B0130F6002000D8
:1016A0006008F7006108863149268B316E2B0A30BD
:1016B000210035020318662B0030F6002000600878
:1016C000F7006108863149268B316E2B20006008B7
:1016D0002000DA000030F7005A0851246E30210053
:1016E000B6000C302100B3003F2C1330F70021006E
:1016F00034088E31D1268B312000DA0021003508E4
:101700002000DA0721003608031D892B2100B301D0
:101710003F2C8830210037052000DD00803A031D72
:10172000952B09302100B3003F2C2100B71EAB2BB5
:101730002000E00A0319E10A6108803E7D3E031D96
:10174000A32BE9306002031CC12B09302000E00705
:101750000318E10AC12B2100371ED82BFF302000CF
:10176000E007031CE1036108803E7D3E031DBA2BA8
:10177000E9306002031CC12BF7302000E007031C96
:10178000E10320005A08F60020006008F700610815
:1017900091242000E1007708E0001F3028001D029E
:1017A000031CD42BF8309D070B302100B3003F2CD5
:1017B0004430210037052000DD00403A031D392C5C
:1017C00021003408063A031D2B2C210035080A3A63
:1017D000031D2B2C0030F6000030F7007E308731DF
:1017E0008B278B312100A901AA0120006108803ECE
:1017F000803E031DFD2B0630600203182B2C2000B9
:1018000060082000DD001330F7005D088E31D1261E
:101810008C312000DE008731C8278C312000EF009A
:101820007708EE006E08F6006F08F7007730873112
:101830008B278C312000DE0A5E088731C8278C3167
:101840002000DE007708DD005E04031D2B2C06302F
:101850002000E000E10120006008F6006108F700C8
:1018600020005A0887318B278C3109302100B300C2
:101870003F2CFA3028009D003F2C2100B3012100AD
:1018800033080030031901302000DA00DD005D0C60
:1018900003184C2C20009913031C502C200099177E
:1018A00008002000CC007708CB0021003216B216C9
:1018B0003215B214063020004C020318782C19306F
:1018C0002100AF00DD302100B00020004C08EF3EC9
:1018D000CC0087300318013ECE004C08F6004E08BD
:1018E000F70080308E31A2268C312100B100902C7F
:1018F000003020004B040319872C61302100AF0019
:1019000009302100B000C9302100B100902CC9304D
:101910002100AF00D1302100B000FF302100B10024
:1019200008002000D3007708D2007608D400723077
:1019300054020318CB2C5408D50013302000550254
:10194000031CA52CED30D5079D2C2000551CB92C6F
:10195000E730F3000330F4000030F5000030F6000B
:101960005208F700530817252000D3007708D2004B
:10197000122D7830F3000530F4007030F500FE30A1
:10198000F60020005208F700530817252000D30066
:101990007708D200122D8E302000D4070730F700D0
:1019A00054088E31D1268C312000D500D60155083F
:1019B000CB3ED4008D30D70056080318560FD707FA
:1019C00003305407D500D601D60D5708D607550861
:1019D000F6005608F70080308E31B4268C31200096
:1019E000D9007708D8000530D4070318D70A54085F
:1019F000F6005708F70080308E31B4268C31200075
:101A0000D6007708D500F3005608F4005808F50012
:101A10005908F6005208F700530817252000D30094
:101A20007708D20020005208F70053080800200071
:101A3000CC007708CB007608CE007508CD0074087E
:101A4000D0007308CF005008803ED1004C08803E83
:101A50005102031D2D2D4B084F020318342D200079
:101A60004D08F7004E084A2D20004C08803ED1005A
:101A70004E08803E5102031D3F2D4D084B020318B6
:101A8000462D20004F08F70050084A2D20004B0833
:101A9000F7004C0808001830F6008E30F700803050
:101AA0008E31B4268D312000E3007708E2001A3031
:101AB000E4008E30E50020006208E6006308E700DD
:101AC000FF30E207031CE303660867040319C82D0F
:101AD00004306407E600E701E70D6508E7076608DC
:101AE000F6006708F70080308E31B4268D31200073
:101AF000E9007708E8006408F6006508F700803020
:101B00008E31B4268D312000EB00E7007708EA0023
:101B1000E60002306407E600E701E70D6508E70725
:101B20006608F6006708F70080308E31B4268D31E4
:101B30002000E700ED007708E600EC0020006808D0
:101B4000EC006908ED00FF30E807031CE9036C08AE
:101B50006D040319C22D6A08F6006B08F700803087
:101B60008E31A2268D312000EC00660884006708C3
:101B700085006C088000EA0A0319EB0AE60A0319DB
:101B8000E70A9E2D06302000E4070318E50A5B2DC6
:101B9000803142280800D134A134FF3400340034AD
:101BA00032340034D134A1340D3400340034FA34EA
:101BB0000034C934CD34FF34CE34FF3432340034F1
:101BC000C934CD340D34CE34FF3432340034613472
:101BD0001134FF347034FE349034013461341934DC
:101BE000FF347034FE3478340534CD348534FF341A
:101BF000003400343C340034D1348534FF340034B4
:101C000000343C340034DD341934FF340034003403
:101C1000013400341934C1340D340034003401343B
:101C20000034DD34D534FF3400340034063400345D
:101C30000C34003403340034B23400340134003442
:101C4000F9340734A534003402340034FB3407344B
:101C5000A734003402340034FD340734A93400348E
:101C600002340034EF340E34AB3400340234003428
:101C7000F1340E34AD34003402340034FF34073410
:101C8000B334003401340034F3340E34B43400344B
:101C900001340034F4340E34B534003401340034EB
:101CA000F5340E34B634003401340034F6340E34D6
:101CB000B734003401340034F7340E34B83400340F
:101CC00001340034003400341A34FE349D34FE34C0
:101CD000F234FE343334FF346934FF349834FF3443
:101CE000C334FF34EB34FF34103400343334003465
:101CF000553400347734003498340034B834003428
:101D0000D9340034FA3400341C3401343E34013404
:101D10006234013487340134AF340134D9340134AE
:101D2000073402343934023470340234B0340234AB
:101D3000FB34023458340334D13403348234043451
:101D4000CA340534003A0319A92E803A0319AF2E7C
:101D500000347608840077088500000808007708BA
:101D60008A00760882000800003A0319BC2E803AE7
:101D70000319C42EF7010034760884007708850023
:101D80001200F700000808008E31AF26F500F60FAC
:101D9000F703F70A8E31AF26F4007508F7007408D0
:101DA00008002100A0007708A100A2010830A300CC
:101DB0002100201CDD2E2108A20721002008A400FC
:101DC0000310240CA0000310210DA400A100230384
:101DD000A400A3002408031DD82E220808003C34C8
:101DE00000343C3400340034003400340034003417
:020000040001F9
:02000E00D40F0D
:02001000FF3AB5
:00000001FF
