:020000040000FA
:1000000000008D31732DFF348A012000911C41289E
:10001000031022000D0D2000BD003D08031D122815
:100020001030BD0021008E0122008D0120003D080E
:10003000103A031928283D08203A03192D283D08B5
:10004000403A031932283D08803A031937283B28E3
:1000500021002F0822008E003B28210030082200BA
:100060008E003B282100310822008E003B28210011
:10007000320822008E0020003D0822008D00200062
:10008000911009002000BE01BF01FF30C0007F3089
:10009000C100FF30C2007F30C3006A3021009900E8
:1000A0000E308C0022008C0121008D0122008D0178
:1000B00021008E01063023008C0021001E169E17A1
:1000C00023008E01053020009C00FA309B002100A7
:1000D00091147A30280097007F30D4272000A700A1
:1000E0007708A900A800280C031878282800171101
:1000F000031C7C2828001715F430280096003730A0
:100100009E00FA309D007730D4272000EF0077085A
:10011000EE00C03020008B00093021009D0020003F
:10012000931DA52888310020803128001719A328A5
:10013000FF302100B20003302100AF005930210010
:10014000B1002100B000200093112000931C482D25
:100150002000BE0A0319BF0A3E1CBA284008F70057
:10016000410817262000C1007708C0000530210093
:100170009D00C62820004208F700430817262000EB
:10018000C3007708C200093021009D0020003E080E
:100190000F39031D462D4008F70041084B2520006C
:1001A000C5007708C4007430D4272000C700770842
:1001B000C6004408C8004508C90046084807210091
:1001C000A500200049082100A600200047080318C8
:1001D000470A0319ED282100A60720004208F7006E
:1001E00043084B252000C5007708C4007530D4278C
:1001F0002000C7007708C6004408C8004508C900A9
:10020000460848072100A700200049082100A8004F
:10021000200047080318470A031910292100A807DE
:1002200020004108C400C50100304502031D1A2901
:10023000F830440203184529003020004502031D10
:10024000232909304402031C45297C30D42720008F
:10025000C5007708C4004504031942294308C400B7
:10026000C50100304502031D3729F8304402031848
:100270004529003020004502031D40290930440271
:10028000031C45292000C401482901302000C40076
:1002900020004408C500450C0318502922000C100A
:1002A000031C542922000C1422000C1C6E2911304E
:1002B0002100AF00CB302100B000FF302100B100A1
:1002C0002100B20022000C128C123C302100AD0043
:1002D000AE013C302100AB00AC01462D7D30D4276F
:1002E0002000C5007708C400C60006304602031887
:1002F0009B2A21003213033020003F02031D822974
:10030000C0303E02031CA02A7D30D4272000AC0060
:100310007708AD00AE0006302E020318942A78301C
:10032000D4272000AC007708AD00AF0009302F02C1
:10033000031C9C290830AF002100A90A0319AA0A4E
:100340001330F70020002E088F3100278131200064
:10035000AD0003102F0DAE00AD072D0AAC00D42761
:100360002000AE007708AC0002302D07B000D42783
:100370002000B1007708B0002E0821002A02031DDA
:10038000C52920002C0821002902031CFC2920007B
:1003900030082000EE00200031082000EF0020008F
:1003A0003008F6003108F7007730972720002F0833
:1003B000083A0319E62903302D07B200D42720009C
:1003C000B3007708B2003304031DED290630F600B0
:1003D0000030F7007D309727972A2100A901AA0154
:1003E0002000AF0A2F08B200B3013208F60033082C
:1003F000F70078309727972A7B30D4272000B20067
:100400007708AF0032040319972A2D08D42720005B
:10041000AF007708AD0021002A0EF0392000B300AC
:100420002100290E2000B2000F39B304B2060310D8
:10043000B20DB30D0310B20DB30D2030B400B501F1
:10044000B601B701B80120002E083302031D2A2A85
:100450002C083202031C4B2A20002C08B2022E0862
:10046000031C2E0FB3023008B9003108BA00003067
:10047000BA1BFF30BC00BB003908B4073A080318A8
:100480003A0FB5073B0803183B0FB6073C080318A3
:100490003C0FB707632A20002D08B9002F08BA00C7
:1004A0000030BA1BFF30BC00BB003908B4073A0863
:1004B00003183A0FB5073B0803183B0FB6073C0873
:1004C00003183C0FB7072000B80A40303802031C5D
:1004D000232A340E0F39AD00350EAC00F039AD04CF
:1004E000AC06360EAE00F039AC04AE06370EAF00E7
:1004F000F039AE04AF06F030AF19AF040310AF1BF4
:100500000314AF0CAE0CAC0CAD0C0310AF1B0314FA
:10051000AF0CAE0CAC0CAD0C2D082000EE00200092
:100520002C082000EF00972A2100A901AA01200031
:10053000BE01BF01A02A210032172000BE01BF0169
:100540007630D4272000C5007708C400450403197D
:10055000102B7730D4272000C7007708C600210071
:1005600025082000C800210026082000C9004608F0
:100570004802C6004708031C470A4902C700031483
:10058000C71F0310031CC92AC609C709C60A0319D5
:10059000C70A03142000C51F0310031CF22AC40954
:1005A000C509C40A0319C50A4508803ECA004708A0
:1005B000803E4A02031DDE2A460844022000C8018C
:1005C000031C48144808003003190130C900C80052
:1005D000480C0318ED2A22000C10031CF12A2200FB
:1005E0000C14102B20004708803ECA004508803EAE
:1005F0004A02031DFD2A440846022000C801031CCC
:1006000048144808003003190130C400C800480CE1
:1006100003180C2B22000C10031C102B22000C14AE
:100620007330D4272000A7007708A9007C30D42796
:100630002000A8007708AB00AA0021002B082C049A
:100640000319262BFF30AB07031CAC0321002D0838
:100650002E0403192F2BFF30AD07031CAE0320001F
:10066000AB0122000C1E362B2000AB0A20002B0809
:10067000003003190130A800AB002B0C0318422BEB
:100680002100B213031C462B2100B2172000AB013E
:1006900022008C1E4D2B2000AB0A20002B080030BE
:1006A00003190130A800AB002B0C0318592B2100B3
:1006B000B211031C5D2B2100B21522000C1E912BE0
:1006C00020006F08803E2000AC0021002608803EFC
:1006D00020002C02031D702B2100250820006E0233
:1006E0000318C72B20002A080319912B2908200082
:1006F0006E022000AB002708031C270A20006F02AF
:100700002000A80021002808803E2000AC00280816
:10071000803E2C02031D8F2B2B0821002702031C77
:10072000C72B22008C1E252C21002608803E20008D
:10073000AC0020006F08803E20002C02031DA42B7B
:1007400020006E08210025020318C72B20002A086C
:100750000319252C290820006E072000AB0020007B
:100760006F082000A80027080318270FA8072808EB
:10077000803EAC0021002808803E20002C02031D92
:10078000C52B2100270820002B020318252C7930C7
:10079000D4272000A8007708AB00280EF0392100EC
:1007A000AC0020002B0E2100AB000F39AC04AB06CF
:1007B0000310AB0DAC0D0310AB0DAC0D2B0E0F39B0
:1007C0002000AB0021002C0E2000A800F039AB0463
:1007D000A8062B082100AB0220002808031C280AC9
:1007E0000319F42B2100AC027A30D4272000A80092
:1007F0007708AB00280EF0392100AE0020002B0E48
:100800002100AD000F39AE04AD060310AD0DAE0DE5
:100810000310AD0DAE0D2D0E0F392000AB002100E1
:100820002E0E2000A800F039AB04A8062B082100EA
:10083000AD0220002808031C280A0319212C2100DE
:10084000AE0222000C128C12F32C22000C1AF32C94
:100850008C1AF32C7230D4272000A8007708AB0044
:100860000310A71B0314A70CA90C0310A71B031448
:10087000A70CA90C2B0820006E072000AC0020005C
:100880006F082000AD0028080318280FAD072D08B9
:10089000803EAE0021002608803E20002E02031D6F
:1008A000552C2100250820002C020318962C20002E
:1008B0002A080319762C290820006E022000AC00BB
:1008C0002708031C270A20006F022000AD0021002A
:1008D0002808803E2000AE002D08803E2E02031D19
:1008E000742C2C0821002702031C962C21002B08B5
:1008F0002C040319932C2000AC012100B21F822C80
:100900002000AC0A21002B0801392000AD00AE0008
:10091000AC062C0C03188E2C2100B213031C922C55
:100920002100B217F32C22000C16F32C20002B0808
:1009300020006E022000AB002808031C280A2000BB
:100940006F022000A80021002608803E2000AF0092
:100950002808803E2F02031DB02C2B082100250201
:100960000318F32C20002A080319D42C290820008E
:100970006E072000A90020006F0803186F0A0319F2
:10098000C32C2000A70720002708803EAF002100CD
:100990002808803E20002F02031DD22C21002708AA
:1009A00020002902031CF32C21002D082E0403191A
:1009B000F12C2000A9012100B21DE02C2000A90A81
:1009C00021002D0801392000A700AB00A906290C41
:1009D0000318EC2C2100B211031CF02C2100B215DD
:1009E000F32C22008C162000991F462D22000C1C8F
:1009F000062D23001D1F062D61302100AF00113090
:100A00002100B000FF302100B1002F2D2000C401D3
:100A100023001E1F0D2D2000C40A200044080030B2
:100A200003190130C600C400440C0318192D21001D
:100A3000B210031C1D2D2100B21423001E1F282DEF
:100A40000130F60021002708F700280855262F2D31
:100A50000130F60021002508F70026085526200061
:100A6000C40123001D1F362D2000C40A20004408A5
:100A7000003003190130C600C400440C0318422D95
:100A800023001D13031C462D23001D172000931067
:100A900064008F2808002000A0007708A100203003
:100AA000A200A301A401A601210E0F39A500200E6A
:100AB000A700F039A504A7060310A70CA50C3F302A
:100AC000A505A7012508A9000310200CA500A70172
:100AD0000310A70CA50C0310A70CA50C1F302505AF
:100AE000A100A0012108A500250AA1000230F700FD
:100AF00021088F31002785312000A000A7012008A0
:100B0000913EA0008E30A10027080318270FA107EF
:100B10000230F70025088F31002785312000A7001B
:100B2000A8012708913EA7008E30A50028080318C9
:100B3000280FA507A801200029082802031CC32D9F
:100B40002708F6002508F70080308E31E32685312E
:100B50002000AB007708AA00AC002B08AD000030E5
:100B6000AD1BFF30AE00AF002C08A2072D08031804
:100B70002D0FA3072F0803182F0FA4072E08031803
:100B80002E0FA607E62D20002008F6002108F7000A
:100B900080308E31E32685312000AB007708AA0033
:100BA000AC002B08AD000030AD1BFF30AE00AF0035
:100BB0002C08A2072D0803182D0FA3072F080318D0
:100BC0002F0FA4072E0803182E0FA6072000A80A2F
:100BD00040302802031C9B2D220E0F39A100230E4A
:100BE000A000F039A104A006240EA500F039A0044D
:100BF000A506260EA700F039A504A706F030A71910
:100C0000A7040310A71B0314A70CA50CA00CA10C90
:100C10000310A71B0314A70CA50CA00CA10C210802
:100C2000A2002008A3002208F700230808002000E3
:100C3000A0007708A10021009D1421009D181D2E01
:100C40001D102000210E0F39A200200EA300F03944
:100C5000A204A3060310A30CA20C0310A30CA20C65
:100C60002208A1022308031C230FA00221001C0854
:100C70002000A200A3012208A400A60121001B0855
:100C80002000A200A3012208A6042308A404260829
:100C9000A2002408A3002208A10723080318230F99
:100CA000A0072108F700200808002000A900770805
:100CB000A8007608AB000314A91F0310031C692EBB
:100CC000210032122000A809A909A80A0319A90ABB
:100CD0006B2E21003216003020002B040319732ED6
:100CE0002100B212321520002908803E7D3E031DEE
:100CF0007B2EE8302802031C8B2E20002808AA0037
:100D00002908AC002A08F7002C082E272000A9008B
:100D10007708A800AB0120002908803E803E031D13
:100D2000932E64302802031CC72E20002808AA0036
:100D30002908AC00AD0120002C08803E803E031D38
:100D4000A32E64302A02031CAC2E9C302000AA077C
:100D5000031CAC03AD0A9B2E20002A08A8002C0817
:100D6000A9000F30AD052D081E3EAD008F300318D1
:100D7000013EAA002D08F6002A08F70080308E31C7
:100D8000D12686312000AC002100AF00CA2EFF30F2
:100D90002100AF0020002908803E803E031DD22E96
:100DA0000A3028020318DF2E20002B08031DDF2E37
:100DB00021002F082000AA00FF3A0319152F200058
:100DC0002808AA002908AC00AD0120002C08803EAC
:100DD000803E031DED2E0A302A02031CF62EF6304B
:100DE0002000AA07031CAC03AD0AE52E20002A0848
:100DF000A8002C08A9002D081E3EAD008F30031856
:100E0000013EAA002D08F6002A08F70080308E3136
:100E1000D12687312000AC002100B00020002B0833
:100E20000319182F21003010182FFF302100B000B7
:100E300020002808AB001E3EA8008F300318013E9A
:100E4000A9002808F6002908F70080308E31D12645
:100E500087312000AB002100B10008002000A00075
:100E60007708A1000310200CA200210CA30003109E
:100E7000200CA400210CA6000310A40CA60C26082C
:100E8000A30724080318240FA207230E0F39A60076
:100E9000220EA400F039A604A4062608A3072408FD
:100EA0000318240FA2072208A600A4012608A307FE
:100EB00024080318240FA2070310A20CA30C03108C
:100EC000A20CA30C0310A20CA30C0310230DA6006C
:100ED000220DA4000310A60DA40D0310A60DA40D51
:100EE0000310230DA500220DA7002508A60727083B
:100EF0000318270FA4072608A1022408031C240FA7
:100F0000A0020630A1070318A00A210E0F39A6007F
:100F1000200EA400F039A604A4062608A30724087E
:100F20000318240FA2072308F70022080800200056
:100F3000A7007708A9007608A8002708D427200072
:100F4000AB007708AA002806031DAA2F2B08290644
:100F50000319D32F03102000270DAA0020002A0810
:100F600023009100200028082300930015139513F7
:100F7000151520008B13553023009600AA309600DB
:100F8000951420008B172300151123009518C52FE9
:100F90002000121220002908A800A9012A08A70091
:100FA000AA0A271CAE2F08002000A000A101A20160
:100FB0000310200DA3002000230823009100151327
:100FC0009513151413082000A000A4012008A60002
:100FD000A5012208A000A40120082504A1002408DE
:100FE0002604A2002308A000A30A201CDB2F21084E
:100FF000F7002208080000340034003400340034C4
:1010000020008B1322000D082000DA0021000E08BA
:101010002000DB0022008D01D83021008E0003105B
:101020002100370D2000DC00DD0120008E1F1A2872
:101030002000DD0A20005C08DE005D08DC005E04A4
:101040002100B7000310370D2000DC00DD01200077
:101050000E1E2C282000DD0A20005C08DE005D0842
:10106000DC005E042100B7000310370D2000DC0017
:10107000DD0120000E1F3E282000DD0A20005C0854
:10108000DE005D08DC005E042100B7000310370DB0
:101090002000DC00DD0120008E1D50282000DD0A2C
:1010A00020005C08DE005D08DC005E042100B70063
:1010B00020005A0822008D0020005B0821008E00CD
:1010C00020008B1721003608031DB6030D302100C8
:1010D00033020318652C88308A00723033070318F6
:1010E0008A0A82007F28E928D12843295E29842999
:1010F000A829C529D129152AAE2A572BA02B88301B
:10110000210037052000DA00083A031D8E281B3025
:101110002100B60001302100B300672C003021000F
:1011200037040319672C7F308731D427883120009A
:10113000DB007708DA005B040319672C33302100E9
:1011400037052000DA00033A031DAA2802302100E7
:10115000B300672C2230210037052000DA00023A64
:10116000031DB62803302100B300672C1130210085
:1011700037052000DA00013A031DC5280D30210093
:10118000B60004302100B300672C4430210037053D
:101190002000DA00403A031D672C07302100B3001D
:1011A000672C0030F6006B30F70000308631552692
:1011B000883121002F102100B21632153330210062
:1011C00037052000DA00333A0319672C2100B301F8
:1011D000672C003021003604031D22297F3087311F
:1011E000D42788312000DC007708DA00DD005D08B4
:1011F000003003190130DA00DE00DF01DE1BDF03FF
:101200005E08F6005F08F7007F3087319727893145
:1012100020005D080319152922000C100C128C12F5
:1012200028001711200093101F293C302100AD0029
:10123000AE013C302100AB00AC01280017152100A5
:10124000B301672C8830210037052000DA00883A86
:101250000319672CDA0123001E1F30292000DA0A47
:1012600020005A08003003190130DD00DA005A0C62
:1012700003183C2923001E13031C402923001E17BA
:101280002100B301672C77308731D42789312000C2
:10129000DD007708DA000130F6005A08F7005D0833
:1012A0008631552689312230210037052000DA00A9
:1012B000223A0319672C2100B301672C7D30873156
:1012C000D42789312000DD007708DA00DE00003005
:1012D000F7005E087924063020005E0203187929A1
:1012E00021003608031D79291130B6000530210090
:1012F000B3001130210037052000DA00113A03193C
:10130000672C2100B301672C78308731D4278931CD
:101310002000DD007708DA000030F6005A08F700F8
:101320005D0886315526893121003608031D9D2927
:101330000D30B60006302100B30011302100370512
:101340002000DA00113A0319672C2100B301672C41
:101350000030F60021002908F7002A0886315526BA
:10136000893121003608031DBA290D30B60004303A
:101370002100B3001130210037052000DA00113AB6
:101380000319672C2100B301672C0130F7002100FD
:10139000340879246E302100B60008302100B300F3
:1013A000672C0030210036040319DE298830210023
:1013B00037052000DA00803A031DE1292100B3013E
:1013C000672C2230210037052000DA00203A031D67
:1013D000F3292100B40A073034020318B40107309E
:1013E0002100B300672C1130210037052000DA00FE
:1013F000103A031D072A2100B40307303402031CEE
:10140000032A0630B40007302100B300672C4430B3
:10141000210037052000DA00403A031D672C210027
:10142000B50109302100B300672C21003216B21635
:1014300032150630210034020318462A2100351CDB
:10144000282A85302100AF00D1302100B0002E2A9B
:1014500061302100AF0019302100B00003102100DD
:10146000350C2000DA001E3EDA008F300318013EF2
:10147000DD005A08F6005D08F70080308E31D12675
:101480008A312000DE002100B100A72A0730F700D2
:10149000210035088F3100278A312000DA00DD0174
:1014A0005A08F33EDA005D0803185D0F8D3EDD003B
:1014B0005A08F6005D08F70080308E31D1268A3157
:1014C0002000DE002100AF000730F70021003508C2
:1014D0008F3100278A312000DA00DD015A08F33EFF
:1014E000DA005D0803185D0F8D3EDD00DA0A03198E
:1014F000DD0A5A08F6005D08F70080308E31D126EB
:101500008A312000DE002100B0000730F700210002
:1015100035088F3100278A312000DA00DD015A08B2
:10152000F33EDA005D0803185D0F8D3EDD000230EA
:10153000DA070318DD0A5A08F6005D08F700803064
:101540008E31D1268A312000DE002100B1006E30BC
:101550002100B6000A302100B300672C00302100C2
:101560003604031DB62A2100B301672C8830210000
:1015700037052000DA00803A031DC22A0730210017
:10158000B300672C2230210037052000DA00203A12
:10159000031DF32A2100B50A063021003402031886
:1015A000D82A133021003502031CEF2AB501EF2A97
:1015B0000C30210035020318B5017D308731D42766
:1015C0008A312000DD007708DA00DE0006305E0296
:1015D000031CEF2A21003508063A0319B50A093021
:1015E0002100B300672C1130210037052000DA00FC
:1015F000103A031D272B2100B503063021003402C9
:1016000003180A2B133021003502031C232B123040
:10161000B500232B0C3021003502031C112B0B309D
:10162000B5007D308731D4278B312000DD0077086D
:10163000DA00DE0006305E02031C232B2100350891
:10164000063A0319B50309302100B300672C443072
:10165000210037052000DA00403A031D672C1330C3
:10166000F700210034088F3100278B312000DA0089
:10167000210035082000DA075A088731D4278B313A
:101680002000E1007708E00020005A08F600200062
:101690006008F7006108B9242000E1007708E00045
:1016A0006E302100B6000B302100B300672C0630ED
:1016B000210034020318732B2100351C692B0030E4
:1016C000F60020006008F7006108863155268B314E
:1016D000992B0130F60020006008F7006108863180
:1016E00055268B31992B0630210035020318822BA9
:1016F0000130F60020006008F700610886315526A9
:101700008B31992B0B30210035020318912B0030BF
:10171000F60020006008F7006108863155268B31FD
:10172000992B200060082000DA000030F7005A08EA
:1017300079246E302100B6000C302100B300672CF4
:101740001330F700210034088F3100278B3120003F
:10175000DA00210035082000DA0721003608031DD1
:10176000B42B2100B301672C8830210037052000FD
:10177000DD00803A031DC02B09302100B300672C27
:101780002100B71ED62B2000E00A0319E10A6108E8
:10179000803E7D3E031DCE2BE9306002031CEC2B06
:1017A00009302000E0070318E10AEC2B2100371E66
:1017B000032CFF302000E007031CE1036108803E9A
:1017C0007D3E031DE52BE9306002031CEC2BF73056
:1017D0002000E007031CE10320005A08F600200067
:1017E0006008F7006108B9242000E1007708E000F4
:1017F0001F3028001D02031CFF2BF8309D070B3003
:101800002100B300672C4430210037052000DD00A3
:10181000403A031D612C21003408063A031D532C65
:10182000210035080B3A031D532C0030F600003020
:10183000F7007830873197278C3120006108803E8F
:10184000803E031D252C063060020318532C200017
:1018500060082000DD001330F7005D088F3100279D
:101860008C312000DE008731D4278C312000EF003E
:101870007708EE006E08F6006F08F70077308731C2
:1018800097278C312000DE0A5E088731D4278C31FF
:101890002000DE007708DD005E04031D532C0630B7
:1018A0002000E000E10120006008F6006108F70078
:1018B00020005A08873197278C3109302100B30066
:1018C000672CFA3028009D00672C2100B30121000D
:1018D00033080030031901302000DA00DD005D0C10
:1018E0000318742C20009913031C782C20009917DE
:1018F00008002000CC007708CB0021003216B21679
:101900003215B214063020004C020318A02C1930F6
:101910002100AF00DD302100B00020004C081E3E49
:10192000CC008F300318013ECE004C08F6004E0864
:10193000F70080308E31D1268C312100B100B82CD7
:10194000003020004B040319AF2C61302100AF00A0
:1019500009302100B000C9302100B100B82CC930D5
:101960002100AF00D1302100B000FF302100B100D4
:1019700008002000D3007708D2007608D400723027
:1019800054020318F32C5408D500133020005502DC
:10199000031CCD2CED30D507C52C2000551CE12CA7
:1019A000E730F3000330F4000030F5000030F600BB
:1019B0005208F70053083F252000D3007708D200D3
:1019C0003A2DC430F3000930F4007030F500FE30D9
:1019D000F60020005208F70053083F252000D300EE
:1019E0007708D2003A2D8E302000D4070730F70058
:1019F00054088F3100278C312000D500D6015508BE
:101A0000F33ED4008D30D70056080318560FD70781
:101A100003305407D500D601D60D5708D607550810
:101A2000F6005608F70080308E31E3268D31200015
:101A3000D9007708D8000530D4070318D70A54080E
:101A4000F6005708F70080308E31E3268D312000F4
:101A5000D6007708D500F3005608F4005808F500C2
:101A60005908F6005208F70053083F252000D3001C
:101A70007708D20020005208F70053080800200021
:101A8000CC007708CB007608CE007508CD0074082E
:101A9000D0007308CF005008803ED1004C08803E33
:101AA0005102031D552D4B084F0203185C2D2000D9
:101AB0004D08F7004E08722D20004C08803ED100E2
:101AC0004E08803E5102031D672D4D084B0203183E
:101AD0006E2D20004F08F7005008722D20004B0893
:101AE000F7004C0808004730F6008E30F7008030D1
:101AF0008E31E3268D312000E3007708E200493083
:101B0000E4008E30E50020006208E6006308E7008C
:101B1000FF30E207031CE303660867040319F02D96
:101B200004306407E600E701E70D6508E70766088B
:101B3000F6006708F70080308E31E3268D312000F3
:101B4000E9007708E8006408F6006508F7008030CF
:101B50008E31E3268D312000EB00E7007708EA00A4
:101B6000E60002306407E600E701E70D6508E707D5
:101B70006608F6006708F70080308E31E3268D3165
:101B80002000E700ED007708E600EC002000680880
:101B9000EC006908ED00FF30E807031CE9036C085E
:101BA0006D040319EA2D6A08F6006B08F70080300F
:101BB0008E31D1268D312000EC0066088400670844
:101BC00085006C088000EA0A0319EB0AE60A03198B
:101BD000E70AC62D06302000E4070318E50A832D26
:101BE000803142280800D134A134FF34003400345D
:101BF00064340034D134A1340D3400340034F4346E
:101C00000134C934CD34FF349C34FF34643400349F
:101C1000C934CD340D349C34FF3464340034613421
:101C20001134FF34E034FC3420340334613419348B
:101C3000FF347034FE34C43409346134C934FF34A1
:101C40000034003408340034CD348534FF3400349B
:101C500000343C340034D1348534FF340034003453
:101C60003C340034DD341934FF34003400340134A2
:101C700000341934C1340D340034003401340034DC
:101C8000DD34D534FF3400340034063400340C34F1
:101C9000003403340034B234003401340034FB34F3
:101CA0000734A534003402340034FD340734A7343B
:101CB00000340234003428340F34A93400340234A0
:101CC00000342A340F34AB340034023400342C3462
:101CD0000F34AD34003402340034FF340734B334ED
:101CE0000034013400342E340F34B4340034013461
:101CF00000342F340F34B534003401340034303420
:101D00000F34B63400340134003431340F34B73476
:101D100000340134003432340F34B8340034013428
:101D2000003400340034D534FD34C134FE34593429
:101D3000FF34CF34FF343034003486340034D334AD
:101D400000341A3401345C3401349C340134DA3404
:101D5000013416340234513402348C340234C73422
:101D60000234023403343F3403347D340334BD344D
:101D70000334013404344834043494340434E534F2
:101D800004343F340534A4340534173406349E3407
:101D90000634443407341E3408345D340934AB341B
:101DA0000B34003A0319D82E803A0319DE2E003482
:101DB00076088400770885000008080077088A0004
:101DC000760882000800003A0319EB2E803A0319C6
:101DD000F32EF7010034760884007708850012009E
:101DE000F700000808008E31DE26F500F60FF70335
:101DF000F70A8E31DE26F4007508F7007408080033
:101E00002100A0007708A100A2010830A300210052
:101E1000201C0C2F2108A20721002008A400031079
:101E2000240CA0000310210DA400A1002303A40092
:101E3000A3002408031D072F220808000334B73429
:101E40000D342534B1346134413437340134213414
:101E5000003400343C3400343C340034003400346A
:061E6000003400340034E0
:020000040001F9
:02000E00D40F0D
:02001000FF3AB5
:00000001FF
